:100000000C9497020C94C8020C94C8020C94C80279
:100010000C94C8020C94C8020C94C8020C94C80238
:100020000C94C8020C9417140C9417140C94171405
:100030000C94C8020C94C8020C94C8020C94C80218
:100040000C94C8020C94C8020C94C8020C94C80208
:100050000C9493140C94C8020C94C8020C947D1256
:100060000C94C8020C94ED130C94C3130C94C802A6
:100070000C94C8020C94C8020C94C8020C94C802D8
:100080000C94C8020C94C8020C94C8020C94C802C8
:100090000C9499130C946F130C94C8020C9459117E
:1000A0000C94C8020C94C8020C94C8020C94C802A8
:1000B0000C94C8020C94C8020C94C8020C94C80298
:1000C0000C94C8020C94C8020C94C8020C944513FA
:1000D0000C941B130C94C8020C94F1120C94C712CC
:1000E0000C94C8020C9468080C94DF060C94080564
:1000F0000C942F070C94370F0C94E3040C949A057E
:100100000C94A10B0C94D1060C9498050C945B07ED
:100110000C941A070C94E60B0C94E6060C94FF0B57
:100120000C9420070C945F070C9447070C94710CF7
:100130000C94E5040C9424070C94C9060C944D0708
:100140000C94DC0A0C940F050C94540B0C9435079A
:100150000C94A31D0C946B050C9415060C9492053D
:100160000C945A070C94920C0C9494050C949C08D3
:100170000C9490050C94CD0A0C9455070C942C0704
:100180000C9443070C94FB060C945B0C0C94E40455
:100190000C94E6040C94FE0A0C94F4050C943907B4
:1001A0000C94960C0C943F070C949C060C944906F6
:1001B0000C94F00A0C949E050C94870A0C94F50498
:1001C0000C949C050C946A060C9496050C94D80625
:1001D0000C94E70B0C9428070C943C050C94C81461
:1001E0000C94B2060C9451070C94ED060C94F9078C
:1001F0000C94F4060C94950C0000210024002700B8
:100200002A002D0030003300010100000401070125
:100210000A0100000A0B02090C0D0E080703040175
:1002200000000000000000000000000000000000CE
:10023000000000000000000000000000000012119B
:10024000100000000000000000000000000000009E
:1002500000000000000000001F10101E11111E0001
:1002600011041F101010101010001304060A0A0ABF
:100270000A0A1F1114041515150E1515150016047C
:100280000E11010601110E00170411111113151999
:10029000110018041511111315191100190407097B
:1002A0000909090911001B041F1111111111110075
:1002B0001F041111110F01110E002304040E151556
:1002C000150E040024041212121212121F01260429
:1002D0001111110F0101010027041111111515153C
:1002E0001F0028041111111515151F0129041808E4
:1002F000080E09090E002A041111111D13131D0007
:100300002B041010101E11111E002C040E110107D9
:1003100001110E002D041215151D151512002E04C5
:100320000F11110F050911002F04030C101E1111DC
:100330000E00310400001E111E111E0032040000C8
:100340001E101010100033040000060A0A0A1F11C4
:1003500034040A000E111F100F005104000015157F
:100360000E151500360400000E1106110E0037049C
:10037000000011131519110038040A04111315197E
:100380001100390400001214181412003A0400007D
:100390000709090911003B040000111B1511110088
:1003A0003C04000011111F1111003D0400001F1139
:1003B000111111003F0400001F0404040400420452
:1003C0000000040E150E0400440400001212121264
:1003D0001F014604000011110F0101004704000035
:1003E000151515151F0048040000151515151F01DA
:1003F0004904000018080E090E004A0400001111FB
:100400001D131D004B04000010101E111E004C0493
:1004100000000E1107110E004D04000012151D15ED
:1004200012004E0400000F110F0509004F04011FB8
:10043000101010101000900400021E101010100078
:1004400091040F10101E10100F00040400000E1075
:100450001C100E0054040A000E0404040E000704CD
:10046000000A000C04040E005704000020002300C2
:10047000260029002C002F0032000001000003019B
:100480000601090100002200250028002B002E0093
:100490003100340002010000050108010B010505CF
:1004A0000505070508080808020202020A0A0808EA
:1004B0000404040401010101010101010303030318
:1004C00003030303040707070C0C0C0C0C0C0C0CA7
:1004D0000202020206060606060606060B0B0B0BB8
:1004E0000B0B0B0B010210202008081020401020DD
:1004F00040800201020108040201010204081020E8
:1005000040808040201008040201800402018040E5
:10051000201008040201080402010102040810204E
:1005200040800102040810204080C814A31D11243B
:100530001FBECFEFD1E2DEBFCDBF00E00CBF12E0A7
:10054000A0E0B2E0EEE3F7E400E00BBF02C00790EA
:100550000D92AC3FB107D9F727E0ACEFB2E001C094
:100560001D92AB3AB207E1F712E0C6E9D2E000E033
:1005700006C021970109802FFE010E94F41DC53994
:10058000D10780E00807A9F70E943E1A0C948D233A
:100590000C9400004F925F926F927F928F929F9285
:1005A000AF92BF92CF92DF92EF92FF920F931F9381
:1005B000CF93DF93C0904D07D0904E07E0904F0748
:1005C000F09050078091490790914A07A0914B07FE
:1005D000B0914C07C81AD90AEA0AFB0A6091510780
:1005E0007091520780915307909154079B01AC0181
:1005F0000E94EF1F4B015C016091590770915A07EF
:1006000080915B0790915C079B01AC010E941F1ECB
:100610009B01AC01C501B4010E94901E0E94021F03
:10062000C114D104E104F10409F0D3C062307105B2
:10063000810591050CF0F2C01092610710926207DB
:10064000109263071092640710925107109252079C
:10065000109253071092540710927107109272076C
:100660001092730710927407DF91CF911F910F9131
:10067000FF90EF90DF90CF90BF90AF909F908F90C2
:100680007F906F905F904F9008951016110612069C
:100690001306DCF46C157D058E059F0524F420916E
:1006A0003F072111BBC09B01AC0188279927DC01C2
:1006B000821B930BA40BB50B809371079093720769
:1006C000A0937307B0937407A9C001151105210504
:1006D000310509F4A3C06C157D058E059F050CF04E
:1006E0009DC080913F07882309F498C030952095DC
:1006F000109501951F4F2F4F3F4F00937107109397
:100700007207209373073093740788C00115110591
:100710002105310509F482C08824992454018C18DC
:100720009D08AE08BF08681579058A059B050CF081
:1007300075C080913F07811171C0D8CFC0907907F3
:10074000D0907A07E0907B07F0907C07A701960194
:10075000C701B6010E941F1E2B013C01C501B40157
:100760000E943A1F20E030E040E850E40E94EF1F72
:1007700020E030E040E85FE30E941F1E9B01AC01D7
:10078000C301B2010E94901E9B01AC01C701B601DA
:100790000E941E1ED62FC72F6C01E0907D07F0909F
:1007A0007E0700917F07109180079701A8010E94A2
:1007B000EA1F18161CF4ED2EFC2E8601C701D80185
:1007C0008093790790937A07A0937B07B0937C0777
:1007D0004CC00091710710917207209173073091FE
:1007E00074071C141D041E041F040CF44ECF1016B5
:1007F0001106120613060CF089CF00271127980165
:100800000C191D092E093F0960177107820793070C
:100810000CF049CF20913F07211145CF80907107FF
:1008200090907207A0907307B090740781149104A0
:10083000A104B10409F082CF8091750790917607E9
:10084000A0917707B09178078093790790937A0702
:10085000A0937B07B0937C0781E01C141D041E0449
:100860001F040CF080E080933F073FEF831A930A48
:10087000A30AB30A8092710790927207A09273073D
:10088000B0927407C0907907D0907A07E0907B0708
:10089000F0907C07C701B6010E94091F60936107B1
:1008A000709362078093630790936407A701960192
:1008B00060E074E284E799E40E94901E609351071F
:1008C00070935207809353079093540720913F07EA
:1008D0002111CACE905860935107709352078093AC
:1008E000530790935407C0CEFC01A089B18982E0E0
:1008F0008C93A485B5851C92A685B7858FEC8C93C7
:10090000108EA489B58986E08C93A289B3898C91D5
:1009100080618C93A289B3898C9188608C93A28921
:10092000B3898C9180688C930288F389E02D808153
:100930008F7D8083089580917B00877F80937B00EB
:1009400080E480937C0080917A00806480937A00B8
:1009500080917A0086FDFCCF80917800909179009B
:1009600008950E949B049C012D52314081E0213367
:10097000310508F080E008952091B903260F332750
:10098000331F21323105ECF42091DF03FC0190E0AC
:1009900080E0243069F082E00895A091B9032191AC
:1009A000AC0149565C4FA40FB52FB11D2C93019695
:1009B000861798F38091B903680F6093B90380E0BC
:1009C000089581E00895089508950895E0918E03B3
:1009D00080918D03E81730F4F0E0E359FC4F8081FB
:1009E00090E008958FEF9FEF089590918E0380918E
:1009F0008D032FEF3FEF981748F4E92FF0E0E3590C
:100A0000FC4F208130E09F5F90938E03C9010895D1
:100A100080918D0390918E03891B990B0895CF923D
:100A2000DF92EF92FF920F931F93CF93DF937C019E
:100A3000CB018A0120916C03222389F0EB016B0129
:100A4000C40ED51ECC15DD0569F06991D701ED9175
:100A5000FC910190F081E02DC7011995F3CF642F2F
:100A60000E94BC04C801DF91CF911F910F91FF90AC
:100A7000EF90DF90CF900895CF93DF931F92CDB783
:100A8000DEB7698320916C032223F9F020918F0354
:100A9000203258F021E030E0FC013383228390E0E3
:100AA00080E00F90DF91CF91089580919003E82F1F
:100AB000F0E0E45BFC4F998190838F5F809390031B
:100AC00080938F0381E090E0ECCF61E0CE0101964E
:100AD0000E94BC04F7CFDC01ED91FC9111972481B9
:100AE000358147705527662777274150510961099D
:100AF0007109473051056105710570F4FA018827C5
:100B0000EB57FA4F8F4F0C94F41D90059205940506
:100B1000960598059A059C0561E0CD01F9011994A7
:100B200065E0FBCF64E0F9CF66E0F7CF62E0F5CF98
:100B30006AE0F3CF68E0F1CF69E0EFCFCF93DF93C6
:100B4000EC01CB01BA0126E030E040E050E00E9429
:100B5000D51D623071058105910589F16CF461152F
:100B6000710581059105D1F061307105810591050F
:100B7000F9F0DF91CF9108956430710581059105F9
:100B800061F124F1653071058105910591F7E881E6
:100B9000F9810480F581E02D66E006C0E881F981E5
:100BA0000480F581E02D64E0CE01DF91CF911994AE
:100BB000E881F9810480F581E02D65E0F5CFE881D9
:100BC000F9810480F581E02D61E0EECFE881F981C3
:100BD0000480F581E02D63E0E7CFE881F9810480AE
:100BE000F581E02D62E0E0CFDC01ED91FC91048025
:100BF000F581E02D43705527662777274230510550
:100C00006105710571F0433051056105710559F0B9
:100C1000413051056105710511F065E0199466E0F8
:100C2000FDCF6AE0FBCF69E0F9CFCF93DF93EC0112
:100C3000CB01BA0123E030E040E050E00E94D51D36
:100C4000613071058105910599F06230710581056A
:100C50009105A9F0672B682B692BC1F4E881F98114
:100C60000480F581E02D64E0CE01DF91CF911994ED
:100C7000E881F9810480F581E02D61E0F5CFE8811C
:100C8000F9810480F581E02D62E0EECFDF91CF9114
:100C90000895DC01ED91FC910480F581E02D437015
:100CA000552766277727423051056105710571F098
:100CB000433051056105710559F041305105610519
:100CC000710511F062E0199463E0FDCF61E0FBCFA4
:100CD00060E0F9CFCF93DF93EC01E881F9810480E4
:100CE000F581E02D8A8160E0811162E0CE011995E5
:100CF000E881F9810480F581E02D8A8161E081112C
:100D000063E0CE0119958CA59DA58230910538F040
:100D1000880F991F880F991F05970197F1F7E881B0
:100D2000F9810480F581E02D8A8160E0811162E023
:100D3000CE01DF91CF911994CF93DF93EC0120E0A6
:100D400030E0A9016C897D898E899F890E94EA1F04
:100D500018162CF4E8A9F9A9DF91CF911994EAA902
:100D6000FBA9FACFDC011396EC911397E93008F058
:100D700042C0F0E08827E054F94F8F4F0C94F41DE7
:100D8000C906D106D806DF06E606FB06ED06FB0619
:100D9000F406ED91FC9111970084F185E02DCD01D1
:100DA0001994ED91FC9111970284F385E02DF7CF12
:100DB000ED91FC9111970484F585E02DF0CFED9134
:100DC000FC9111970684F785E02DE9CFED91FC9118
:100DD00011970088F189E02DE2CFED91FC911197F8
:100DE0000288F389E02DDBCFED91FC911197048807
:100DF000F589E02DD4CF08958150823108F05AC092
:100E0000E82FF0E08827E85FF84F8F4F0C94F41D2F
:100E100028072C071A07200724075A072F0735072A
:100E200039073F07430747074D0751075A0755073B
:100E30005B075F07809180008F7780938000089523
:100E4000809180008F7DF9CF80918000877FF5CFE2
:100E500084B58F7784BD089584B58F7DFBCF809155
:100E6000B0008F778093B00008958091B0008F7D9F
:100E7000F9CF809190008F778093900008958091B2
:100E800090008F7DF9CF80919000877FF5CF809182
:100E9000A0008F778093A00008958091A0008F7D9F
:100EA000F9CF8091A000877FF5CF809120018F77C7
:100EB000809320010895809120018F7DF9CF80914A
:100EC0002001877FF5CFCF93DF93282F30E0F90102
:100ED000EE5EFD4F8491F901EC51FB4FD491F90185
:100EE000E256FB4FC491CC23A1F081110E94FC0675
:100EF000EC2FF0E0EE0FFF1FE659FB4FA591B491E8
:100F0000EC91ED2381E090E009F480E0DF91CF9156
:100F1000089580E090E0FACF1F93CF93DF93282FBE
:100F200030E0F901EE5EFD4F8491F901EC51FB4F89
:100F3000D491F901E256FB4FC491CC23A9F0162FAE
:100F400081110E94FC06EC2FF0E0EE0FFF1FEC5722
:100F5000FB4FA591B4918FB7F894EC91111108C093
:100F6000D095DE23DC938FBFDF91CF911F91089541
:100F7000DE2BF8CF1092DF0381E08093E103109223
:100F8000E00361E084E10E948C0761E085E10E945A
:100F90008C07E9EBF0E080818E7F808380818D7FFC
:100FA000808388E48093B80085E48093BC00089532
:100FB000CF93DF9391E0909396038823B9F0C0918B
:100FC000B800D091BA008091BC008A7B8093BC00AD
:100FD00060E084E10E948C0760E085E10E948C075C
:100FE0000E94BA07D093BA00C093B800DF91CF91A6
:100FF0000895CF92DF92EF92FF920F931F93CF93BA
:10100000DF93DC011396CC91C43039F0C83059F12C
:10101000C33019F0C63049F1C2E08C010C5F1F4F9C
:10102000F12CE12CC62ED12CD1E0F8016481C6014F
:101030000E2C02C0959587950A94E2F780FD6D27E6
:101040000F5F1F4F80810E948C07BFEFEB1AFB0AD6
:10105000EC1658F3DF91CF911F910F91FF90EF9015
:10106000DF90CF900895C4E0D8CFC3E0D6CFCF9320
:10107000DF9390E0FC01EC51FB4F249182569B4F93
:10108000FC0184918823D1F090E0880F991FFC0126
:10109000E850FE4FA591B491FC01EC57FB4FC59170
:1010A000D49161110EC09FB7F8948C91E22FE09516
:1010B0008E238C932881E223E8839FBFDF91CF9119
:1010C00008958FB7F894EC91E22BEC938FBFF6CF95
:1010D000CF93DF93FC012381222359F1EC0161E0DE
:1010E00084810E94370861E08D810E9437088B81DE
:1010F000843011F08830B1F461E08E810E943708AD
:1011000061E08F810E9437088FA58F3F91F061E0E9
:101110000E9437086EA581E068278FA5DF91CF91E7
:101120000C948C07833011F0863071F761E08E816A
:10113000E9CFDF91CF910895CF93DF93FC01238115
:101140002223A9F0EC010190F081E02D0480F581CB
:10115000E02D60E019958FA58F3F49F061E00E9476
:1011600037086EA58FA5DF91CF910C948C07DF9186
:10117000CF9108953FB7F894809147039091480329
:10118000A0914903B0914A0326B5A89B05C02F3F03
:1011900019F00196A11DB11D3FBFBA2FA92F982F9D
:1011A0008827BC01CD01620F711D811D911D42E098
:1011B000660F771F881F991F4A95D1F70895CF9220
:1011C000DF92EF92FF928091610790916207A09168
:1011D0006307B0916407892B8A2B8B2B09F44DC0D0
:1011E0000E94BA086B017C018091650790916607A7
:1011F000A0916707B0916807B701A601481B590B7A
:101200006A0B7B0B8091610790916207A091630745
:10121000B0916407481759076A077B0770F18091FE
:10122000490790914A07A0914B07B0914C07209134
:101230003F07222309F44CC00196A11DB11D8093E4
:10124000490790934A07A0934B07B0934C074091EE
:10125000490750914A0760914B0770914C078DE305
:1012600097E00E94B206C0926507D0926607E092AE
:101270006707F09268070E94CA0220E030E0A901E7
:1012800060915107709152078091530790915407D4
:101290000E948B1E811120C081E0C0904D07D0902C
:1012A0004E07E0904F07F09050074091490750914A
:1012B0004A0760914B0770914C07C416D506E606A5
:1012C000F70609F480E0FF90EF90DF90CF9008954B
:1012D0000197A109B109B3CF81E0F5CFCF92DF9299
:1012E000EF92FF920F931F93CF93DF93FC01C48182
:1012F00021E020936C03C0934B0310929003109253
:101300008F038385682B85E094E00E943C05D09193
:101310008F03D13208F092C00E94BA086B017C01A1
:101320008091DF03811165C082E08093DF0381E05B
:101330008093E1038FEF8093DE0310920304D09338
:101340000204ACE4B3E0E2EEF3E080E0D81385C041
:101350001092040480910404CC0FC82BC0930404A1
:101360008091E003813009F07CC01092E0030E947C
:10137000BA086B017C01809104048093BB008091CA
:10138000920390919303A0919403B0919503892BBC
:101390008A2B8B2B99F00E94BA080091920310912E
:1013A000930320919403309195036C197D098E0964
:1013B0009F090617170728073907E0F18091BC003D
:1013C00083FDD9CF85EC8093BC000E94BA086B01E5
:1013D0007C018091DF03823009F445C08091DE03F7
:1013E0008F3F61F18091DE03803241F18091DE0315
:1013F00025C08091920390919303A0919403B091A2
:101400009503892B8A2B8B2B09F48ACF0E94BA086B
:1014100000919203109193032091940330919503CE
:101420006C197D098E099F090617170728073907C8
:1014300008F076CF809191030E94D8071092900314
:1014400010928F0310926C03DF91CF911F910F9137
:10145000FF90EF90DF90CF9008959D9191938F5FD3
:1014600075CF85EEB0CF8091920390919303A091B8
:101470009403B0919503892B8A2B8B2B09F4A9CF68
:101480000E94BA0800919203109193032091940353
:10149000309195036C197D098E099F09061717076E
:1014A0002807390708F095CFC5CF8F929F92AF924A
:1014B000BF92CF92DF92EF92FF924B015C010E94AC
:1014C000BA086B017C010E94BA086C197D098E096B
:1014D0009F09683E734081059105A8F321E0821AB7
:1014E0009108A108B10888EEC80E83E0D81EE11C5F
:1014F000F11C81149104A104B10429F7FF90EF902D
:10150000DF90CF90BF90AF909F908F900895AF9253
:10151000BF92CF92DF92EF92FF920F931F93CF93E0
:10152000DF936C017B018B01040F151FEB015E0142
:10153000AE18BF08C017D10759F06991D601ED91D7
:10154000FC910190F081E02DC6011995892B79F766
:10155000C501DF91CF911F910F91FF90EF90DF9028
:10156000CF90BF90AF900895FC01A089B1898C9174
:10157000A689B78982FD0FC09C91818D8F5F8F7383
:10158000228D821749F0A18DAE0FBF2FB11D5D9640
:101590009C93818F08958C910895FC01538D448D07
:1015A000252F30E0842F90E0821B930B541710F00E
:1015B000CF96089501970895FC01918D828D98171B
:1015C00061F0A28DAE0FBF2FB11D5D968C91928DF3
:1015D0009F5F9F73928F90E008958FEF9FEF089524
:1015E000FC01918D828D981731F0828DE80FF11DED
:1015F000858D90E008958FEF9FEF0895FC01918D08
:10160000228D892F90E0805C9F4F821B91098F7300
:101610009927089581E194E00E94FE0A21E0892B38
:1016200009F420E0822F08958EEA94E00E94FE0AD9
:1016300021E0892B09F420E0822F08958BE495E0C6
:101640000E94FE0A21E0892B09F420E0822F0895F0
:1016500088EE95E00E94FE0A21E0892B09F420E043
:10166000822F0895FC01A48DA80FB92FB11DA35A94
:10167000BF4F2C91848D90E001968F739927848FB2
:10168000A689B7892C93A089B1898C9183708064D5
:101690008C93938D848D981306C00288F389E02D76
:1016A00080818F7D80830895EF92FF920F931F9327
:1016B000CF93DF93EC0181E0888F9B8D8C8D981305
:1016C0001AC0E889F989808185FF15C09FB7F89411
:1016D000EE89FF896083E889F9898081837080645D
:1016E00080839FBF81E090E0DF91CF911F910F91A8
:1016F000FF90EF900895F62E0B8D10E00F5F1F4FB7
:101700000F731127E02E8C8D8E110CC00FB607FCC5
:10171000FACFE889F989808185FFF5CFCE010E9453
:10172000320BF1CFEB8DEC0FFD2FF11DE35AFF4F84
:10173000F0829FB7F8940B8FEA89FB8980818062E1
:10174000CFCFCF93DF93EC01888D8823B9F0AA899E
:10175000BB89E889F9898C9185FD03C0808186FD6C
:101760000DC00FB607FCF7CF8C9185FFF2CF8081BB
:1017700085FFEDCFCE010E94320BE9CFDF91CF91F3
:10178000089580E090E0892B29F00E94280B8111B8
:101790000E94000080E090E0892B29F00E941E0B3F
:1017A00081110E94000080E090E0892B29F00E94C6
:1017B000140B81110E94000080E090E0892B29F039
:1017C0000E940A0B81110C94000008950895209145
:1017D0003B0730913C072817390771F4909139077E
:1017E00080913A07981741F0E0913907F0E0E35013
:1017F000FD4F808190E008958FEF9FEF0895EF9265
:10180000FF920F931F93CF93DF93DC015C96ED90D3
:10181000FC905D97E114F10479F481E090E0139677
:101820009C938E93129790E080E0DF91CF911F916F
:101830000F91FF90EF9008955196ED91FC91529782
:1018400050968C915097982F90950FB75E962C914B
:101850005E97122F127021FD6095F894208111235C
:1018600019F1282B2083E7012197F1F728E0462F73
:1018700050E0308160FF1AC0382B3083E701219798
:10188000F1F7BA0175956795215089F7112381F019
:101890008081892380830FBF5C968D919C910197F5
:1018A000F1F781E090E0C1CF2923DCCF3923E5CFE8
:1018B0009081892BEFCF20913B0730913C0728176F
:1018C000390761F480913A072091390790E0805CF4
:1018D0009F4F821B91098F739927089590E080E0B4
:1018E000089520913B0730913C0728173907B9F438
:1018F0009091390780913A07981789F0E09139075C
:10190000F0E0E350FD4F80812091390730E02F5FF8
:101910003F4F2F7333272093390790E008958FEFBF
:101920009FEF089590E080E008950895809141032D
:10193000882349F08EE10E946307892B09F4A1C036
:1019400081E08093FC0280918B07882331F18091A4
:101950004D0790914E07A0914F07B0915007892BEA
:101960008A2B8B2B51F010924D0710924E0710923C
:101970004F07109250070E94CA020E94DF08809110
:10198000490790914A07A0914B07B0914C07892BCA
:101990008A2B8B2B11F410928B078091FC028823E9
:1019A00009F46EC08EE10E946307892BB1F48DE1CA
:1019B0000E946307892B89F01092FC021092820723
:1019C0001092810781E080938B0760E081E20E94A2
:1019D0008C0760E082E20E948C07809181079091E1
:1019E00082078130910509F4B2C08230910509F473
:1019F0004CC0892B09F044C080910E0290910F02D7
:101A0000A0911002B091110240914D0750914E07E4
:101A100060914F077091500784179507A607B70785
:101A200051F080934D0790934E07A0934F07B093CA
:101A300050070E94CA020E94DF0880910E02909116
:101A40000F02A0911002B0911102409149075091EC
:101A50004A0760914B0770914C0784179507A607BA
:101A6000B70771F422E030E03093820720938107BA
:101A70008093830790938407A0938507B09386078C
:101A800008958DE10E9463075ECF80918307909156
:101A90008407A0918507B091860740910602509176
:101AA00007026091080270910902840F951FA61F1A
:101AB000B71F8093870790938807A0938907B093F7
:101AC0008A0740914D0750914E0760914F077091E2
:101AD000500784179507A607B70751F080934D0765
:101AE00090934E07A0934F07B09350070E94CA02ED
:101AF0000E94DF084091870750918807609189070D
:101B000070918A078091490790914A07A0914B07ED
:101B1000B0914C07481759076A077B0709F0B0CF07
:101B200061E081E20E948C0761E082E20E948C0702
:101B300081E090E09093820780938107809149072C
:101B400090914A07A0914B07B0914C0791CF80919B
:101B5000830790918407A0918507B09186074091F3
:101B60000A0250910B0260910C0270910D02840FD9
:101B7000951FA61FB71F8093870790938807A09390
:101B80008907B0938A0740914D0750914E076091A5
:101B90004F077091500784179507A607B70751F0B4
:101BA00080934D0790934E07A0934F07B093500733
:101BB0000E94CA020E94DF0840918707509188075F
:101BC0006091890770918A078091490790914A072F
:101BD000A0914B07B0914C07481759076A077B073C
:101BE00009F04ECF60E081E20E948C0760E082E263
:101BF0000E948C0782E090E09DCF4F925F926F929F
:101C00007F928F929F92AF92BF92CF92DF92EF928C
:101C1000FF926B017C0120E030E0A9010E948B1E45
:101C200087FF04C0F7FAF094F7F8F0948090590712
:101C300090905A07A0905B07B0905C07A7019601AF
:101C4000C501B4010E948B1E882309F456C060911F
:101C500071077091720780917307909174070E94C9
:101C60003A1F2B013C01A7019601C501B4010E9456
:101C7000901E9B01AC01C301B2010E94EF1F0E94A4
:101C8000021F60937107709372078093730790939C
:101C90007407A701960160E070E080E090E40E9484
:101CA000901E0E94622026E53EE04DE25FE30E9426
:101CB000EF1F20E034E244E759E40E94EF1F6093F5
:101CC0007507709376078093770790937807C09293
:101CD0005907D0925A07E0925B07F0925C07FF9099
:101CE000EF90DF90CF90BF90AF909F908F907F90BC
:101CF0006F905F904F900C94CA02FF90EF90DF902E
:101D0000CF90BF90AF909F908F907F906F905F909B
:101D10004F900895FC0101900020E9F73197AF0141
:101D2000481B590BBC0185E896E00C94870A85EDA9
:101D30008093BC008091920390919303A0919403AF
:101D4000B09195030796A11DB11D23E0B695A79507
:101D5000979587952A95D1F72091BC0024FD03C063
:101D60001092DF0308954091920350919303609184
:101D7000940370919503452B462B472B69F30097ED
:101D8000A105B10541F025E32A95F1F7000001977F
:101D9000A109B109E1CF809191030C94D8070F9369
:101DA0001F93CF938C01C62F0E946E096C2F646025
:101DB000C8010E946E0985E08A95F1F700006C2F3A
:101DC0006B7FC8010E946E0987EC90E00197F1F7E4
:101DD00000C00000CF911F910F9108950F931F93A2
:101DE000CF93DF938C01D62FC42F607F642B0E948A
:101DF000CF0E80E1D89FB00111246C2BC801DF9178
:101E0000CF911F910F910C94CF0ECF93DF9300D001
:101E100000D01F921F92CDB7DEB798E0E2E1F2E06A
:101E2000DE01119601900D929A95E1F790918D0641
:101E3000961710F46FEF690F262F30E0220F331F33
:101E400041E050E04C0F5D1F240F351FF901608108
:101E5000680F606840E085E896E028960FB6F89431
:101E6000DEBF0FBECDBFDF91CF910C94EE0E41E0EF
:101E70000E94EE0E81E090E008952F923F924F92E3
:101E80005F926F927F928F929F92AF92BF92CF920A
:101E9000DF92EF92FF920F931F93CF93DF9300D0C7
:101EA00000D000D01F92CDB7DEB75C01FC010190DD
:101EB0000020E9F731972F01481A590AF12CE12C3B
:101EC0009E01275F3F4F3A872987E414F5040CF001
:101ED0009CC1F501EE0DFF1D8080082C000C9908B7
:101EE000C401807C9927803C910509F5818187FF99
:101EF0001EC026E0880C991C2A95E1F730EC83225D
:101F000037E093228F73882A82E0E80EF11C80E884
:101F10008816910474F441E0682D85E896E00E94EB
:101F2000EE0E809194068F5F80939406CECF81E071
:101F3000ECCF90E2891694E0990609F43DC10CF0CB
:101F4000F0C0F5E18F16F4E09F0609F42CC10CF007
:101F5000CAC031E0831634E0930609F424C10CF0C2
:101F6000B1C06FED90EB8916910409F449C195E871
:101F7000C92E96E0D92EF60180E02689378982168F
:101F8000930629F08F5F33968533B9F78FEFF3E02F
:101F90008F9FC00111249C012656394F390110E052
:101FA00000E0A801405A5D4F052E000C660B770B30
:101FB00022E030E0CE0101960E94BE14F30121819F
:101FC000328189819A812817390709F00DC1A8014A
:101FD000485A5D4F052E000C660B770B28E030E069
:101FE000CE0101960E94BE14E5E8F6E000E0868985
:101FF00097898816990629F00F5F33960533B9F74C
:102000000FEF10E03801660C771CF301E00FF11FB1
:10201000EB57F94F65896F3F09F0F2C03090940695
:102020002090950660919206677028E0629FB0014B
:102030001124606440E085E896E00E94EE0ECE0137
:1020400001964C01F40161914F0185E896E00E94F0
:10205000370F29853A8528153905A1F7309294065E
:1020600020929506622D832D0E94050F60919206A5
:1020700085E896E00E94370F809192069091930632
:10208000060D171DF801EB57F94F858B01969093BC
:10209000930680939206209191062817190611F055
:1020A0000CF03FCF10929306109292062FEFF6019C
:1020B000258B33E0C30ED11C84E297E08C159D057F
:1020C000A9F72FCFE0E18E16E4E09E0609F468C080
:1020D00088E792E0F2E18F16F4E09F0609F047CF1F
:1020E0000E948A0E1ECF2CE1821624E0920609F48B
:1020F0005DC04CF48AE1881684E0980609F037CF79
:102100008CE792E0EDCF9DE1891694E0990609F401
:1021100050C082E892E0EEE18E16E4E09E0601F304
:1021200026CFF5E38F16F4E09F0609F451C0B4F40E
:1021300032E2831634E0930609F444C00CF43FC045
:1021400095E2891694E0990609F43FC08CE892E084
:10215000E0E38E16E4E09E0619F209CFF1E48F1653
:10216000F4E09F06D9F174F43EE3831634E093065D
:1021700091F180E4881684E0980609F0F8CE82E9AF
:1021800092E0AECF93E4891694E0990651F188E984
:1021900092E0E5E48E16E4E09E0609F4A1CFE7CED6
:1021A00086E792E09DCF8AE792E09ACF8EE792E0B1
:1021B00097CF80E892E094CF84E892E091CF86E8D0
:1021C00092E08ECF88E892E08BCF8AE892E088CFC9
:1021D0008EE892E085CF80E992E082CF84E992E0B8
:1021E0007FCF86E992E07CCF065F1F4F0231F2E09D
:1021F0001F0709F0D6CE4FEF50E060E070E0EECE62
:1022000085E896E00E94370F8CCE2A960FB6F89498
:10221000DEBF0FBECDBFDF91CF911F910F91FF9019
:10222000EF90DF90CF90BF90AF909F908F907F9076
:102230006F905F904F903F902F90089540E061E045
:102240000E94EE0E8FE39FE10197F1F700C00000BE
:1022500008959F92AF92BF92CF92DF92EF92FF923A
:102260000F931F93CF93DF935C017B018B01D0E031
:10227000C0E0F80191908F016501CC0EDD1EC60112
:102280000E94BF1D981621F0692DC6010E94C71D2E
:102290002196C430D10569F7C701DF91CF911F9115
:1022A0000F91FF90EF90DF90CF90BF90AF909F90F5
:1022B00008951F920F920FB60F9211240BB60F9232
:1022C0002F933F934F935F936F937F938F939F933E
:1022D000AF93BF93EF93FF938091B900887F8036CF
:1022E00009F44DC008F040C0883209F4A9C028F5AF
:1022F000803109F49DC0C8F4882309F4FBC08830FC
:1023000009F496C0FF91EF91BF91AF919F918F918A
:102310007F916F915F914F913F912F910F900BBEE5
:102320000F900FBE0F901F901895883109F488C048
:10233000803241F78093DE0314C0803409F49DC0DD
:1023400040F48033B9F38833E9F68093DE0385ECFB
:10235000B0C0803509F485C0883509F496C088344A
:1023600089F60E94970ECECF883909F48CC038F5D3
:10237000883729F050F4883611F0803719F683E059
:102380008093DF031092DD0357C0883809F47BC0C7
:10239000803919F0803809F0B5CF8091DD038032A3
:1023A00008F071C0E091DD0381E08E0F8093DD03C2
:1023B0008091BB00F0E0E354FC4F80833DC0803B44
:1023C00039F0E0F4803A09F479C0883A09F09ACFFC
:1023D00084E08093DF031092BA031092B903E09176
:1023E000B703F091B80319958091B90381110FC01B
:1023F00081E08093B9031092970309C0803C09F4EF
:10240000A6CF883C09F4A3CF883B09F07BCFE091AD
:10241000BA0381E08E0F8093BA03F0E0E956FC4FD7
:1024200080818093BB009091BA038091B90329C049
:10243000809104048093BB0085EC8093BC0062CF44
:102440009091030480910204981758F5E0910304D9
:1024500081E08E0F80930304F0E0EE51FC4F808109
:10246000E9CFE091030481E08E0F80930304809113
:10247000BB00F0E0EE51FC4F80839091030480910B
:1024800002049817C8F285E8D8CFE091030481E0F0
:102490008E0F809303048091BB00F0E0EE51FC4F5F
:1024A00080838091E10381115CCF81E08093E00320
:1024B00084EA8093BC001092DF0324CF85EC8093E4
:1024C000BC001092DF038091DD03803230F4E09194
:1024D000DD03F0E0E354FC4F10826091DD0370E017
:1024E000E091BB03F091BC038DEB93E01995109242
:1024F000DD0308CF1092DE0334CF1F920F920FB688
:102500000F9211242F933F938F939F93AF93BF9379
:102510008091430390914403A0914503B0914603F9
:102520003091420323E0230F2D3758F50196A11D6A
:10253000B11D209342038093430390934403A093DF
:102540004503B09346038091470390914803A091BF
:102550004903B0914A030196A11DB11D8093470321
:1025600090934803A0934903B0934A03BF91AF915E
:102570009F918F913F912F910F900FBE0F901F90C1
:10258000189526E8230F0296A11DB11DD2CF1F92E8
:102590000F920FB60F9211240BB60F922F933F9309
:1025A0004F935F936F937F938F939F93AF93BF935B
:1025B000EF93FF9381E194E00E94320BFF91EF9142
:1025C000BF91AF919F918F917F916F915F914F914B
:1025D0003F912F910F900BBE0F900FBE0F901F9049
:1025E00018951F920F920FB60F9211240BB60F92EF
:1025F0002F933F934F935F936F937F938F939F930B
:10260000AF93BF93EF93FF9381E194E00E94B40AEC
:10261000FF91EF91BF91AF919F918F917F916F91BA
:102620005F914F913F912F910F900BBE0F900FBE76
:102630000F901F9018951F920F920FB60F921124B2
:102640000BB60F922F933F934F935F936F937F93AC
:102650008F939F93AF93BF93EF93FF938EEA94E092
:102660000E94320BFF91EF91BF91AF919F918F919B
:102670007F916F915F914F913F912F910F900BBE82
:102680000F900FBE0F901F9018951F920F920FB6CC
:102690000F9211240BB60F922F933F934F935F939A
:1026A0006F937F938F939F93AF93BF93EF93FF931A
:1026B0008EEA94E00E94B40AFF91EF91BF91AF912E
:1026C0009F918F917F916F915F914F913F912F914A
:1026D0000F900BBE0F900FBE0F901F9018951F927A
:1026E0000F920FB60F9211240BB60F922F933F93B8
:1026F0004F935F936F937F938F939F93AF93BF930A
:10270000EF93FF938BE495E00E94320BFF91EF91E2
:10271000BF91AF919F918F917F916F915F914F91F9
:102720003F912F910F900BBE0F900FBE0F901F90F7
:1027300018951F920F920FB60F9211240BB60F929D
:102740002F933F934F935F936F937F938F939F93B9
:10275000AF93BF93EF93FF938BE495E00E94B40A8D
:10276000FF91EF91BF91AF919F918F917F916F9169
:102770005F914F913F912F910F900BBE0F900FBE25
:102780000F901F9018951F920F920FB60F92112461
:102790000BB60F922F933F934F935F936F937F935B
:1027A0008F939F93AF93BF93EF93FF9388EE95E042
:1027B0000E94320BFF91EF91BF91AF919F918F914A
:1027C0007F916F915F914F913F912F910F900BBE31
:1027D0000F900FBE0F901F9018951F920F920FB67B
:1027E0000F9211240BB60F922F933F934F935F9349
:1027F0006F937F938F939F93AF93BF93EF93FF93C9
:1028000088EE95E00E94B40AFF91EF91BF91AF91DD
:102810009F918F917F916F915F914F913F912F91F8
:102820000F900BBE0F900FBE0F901F9018951F9228
:102830000F920FB60F9211240BB60F922F933F9366
:102840004F935F936F937F938F939F93AF93BF93B8
:10285000EF93FF93E0913B07F0913C07309749F0ED
:10286000A685B7858585968D91FF16C09C91892395
:10287000B1F4FF91EF91BF91AF919F918F917F91B3
:102880006F915F914F913F912F910F900BBE0F90E1
:102890000FBE0F901F9018959C91892351F7A38923
:1028A000B4899C918589809589238C9386899789A1
:1028B0000197F1F7608D718DA685B785558538E054
:1028C00020E0CB010197F1F7822F90E09595879555
:1028D000282F4C91452309F02068315091F7868DBF
:1028E00081FD209580913A0790E001968F7399279A
:1028F00030913907381799F0A0913A07B0E0A3500A
:10290000BD4F2C9380933A07828D938D0197F1F7F9
:10291000A389B4898C919589892B8C93AACF868DB4
:102920008160868FF1CF1F920F920FB60F92112404
:102930000BB60F922F933F934F935F936F937F93B9
:102940008F939F93AF93BF93EF93FF93E091000218
:10295000F09101021995FF91EF91BF91AF919F9175
:102960008F917F916F915F914F913F912F910F9038
:102970000BBE0F900FBE0F901F9018956BBFFA0102
:10298000DC0102C007900D9221503040D8F7089525
:10299000CF92DF92EF92FF92CF93109208041092A1
:1029A000070488EE93E0A0E0B0E0809309049093E0
:1029B0000A04A0930B04B0930C042EE132E0309390
:1029C00006042093050410921404109213048093BB
:1029D000150490931604A0931704B093180420E3F1
:1029E00032E0309312042093110445E351E05093F8
:1029F0001E0440931D0444E351E05093200440938F
:102A00001F0440E351E0509322044093210441E32A
:102A100051E0509324044093230442E351E0509347
:102A200026044093250446E351E050932804409344
:102A3000270410922A0410922B0410922C04109256
:102A40002D041092B1041092B0048093B2049093BC
:102A5000B304A093B404B093B5043093AF042093AF
:102A6000AE0445ED50E05093BB044093BA0444EDEE
:102A700050E05093BD044093BC0440ED50E05093AF
:102A8000BF044093BE0441ED50E05093C104409315
:102A9000C00442ED50E05093C3044093C20446ED9D
:102AA00050E05093C5044093C4041092C7041092A0
:102AB000C8041092C9041092CA0410924E051092D4
:102AC0004D0580934F0590935005A0935105B09309
:102AD000520530934C0520934B054DEC50E050933C
:102AE0005805409357054CEC50E050935A054093DD
:102AF000590548EC50E050935C0540935B0549EC68
:102B000050E050935E0540935D054AEC50E05093D1
:102B1000600540935F054EEC50E050936205409392
:102B20006105109264051092650510926605109279
:102B300067051092EB051092EA058093EC059093DF
:102B4000ED05A093EE05B093EF053093E9052093D2
:102B5000E80585EC90E09093F5058093F40584EC0E
:102B600090E09093F7058093F60580EC90E09093C9
:102B7000F9058093F80581EC90E09093FB05809334
:102B8000FA0582EC90E09093FD058093FC0586ECBD
:102B900090E09093FF058093FE051092010610923D
:102BA0000206109203061092040682E492E09093CB
:102BB0003E0780933D0781E08093400710924907CC
:102BC00010924A0710924B0710924C0710924D0733
:102BD00010924E0710924F07109250071092510713
:102BE00010925207109253071092540780E090E021
:102BF000A0E8BFE38093550790935607A09357072B
:102C0000B09358071092590710925A0710925B0719
:102C100010925C0780935D0790935E07A0935F0717
:102C2000B0936007109261071092620710926307D9
:102C30001092640721E030E030936A07209369071F
:102C4000CFEFC0936C071092650710926607109241
:102C50006707109268072BE02093410729E0209333
:102C6000420724E02093430725E020934407109275
:102C70006B071092710710927207109273071092EF
:102C800074071092750710927607109277071092CA
:102C900078071092790710927A0710927B071092AA
:102CA0007C0780937D0790937E07A0937F07B09366
:102CB000800710923F071092450710924607109226
:102CC0004707109248078DE397E00E94680860E08C
:102CD00070E080E89FE30E94FD0D1092880610923C
:102CE000870687E28093890680E180938E0682E0E2
:102CF00080938F06109290068CE592E09093860662
:102D00008093850610929606109297061092980668
:102D100010929906C0939A0681E194E090939C06E4
:102D200080939B06C0939D0683E194E090939F0659
:102D300080939E06C093A00684E194E09093A2063F
:102D40008093A106C093A30686E194E09093A50624
:102D50008093A406C093A60687E194E09093A8060A
:102D60008093A706C093A90688E194E09093AB06F0
:102D70008093AA06C093AC0689E194E09093AE06D6
:102D80008093AD06C093AF068BE194E09093B106BB
:102D90008093B006C093B2068FE194E09093B4069E
:102DA0008093B306C093B50683E294E09093B70690
:102DB0008093B606C093B80684E294E09093BA0676
:102DC0008093B906C093BB0686E294E09093BD065B
:102DD0008093BC06C093BE0687E294E09093C00641
:102DE0008093BF06C093C10688E294E09093C30627
:102DF0008093C206C093C40689E294E09093C6060D
:102E00008093C506C093C7068AE294E09093C906F2
:102E10008093C806C093CA068BE294E09093CC06D8
:102E20008093CB06C093CD068CE294E09093CF06BE
:102E30008093CE06C093D0068DE294E09093D206A4
:102E40008093D106C093D3068EE294E09093D5068A
:102E50008093D406C093D6068FE294E09093D80670
:102E60008093D706C093D90681E394E09093DB0664
:102E70008093DA06C093DC0682E394E09093DE064A
:102E80008093DD06C093DF0683E394E09093E10630
:102E90008093E006C093E20684E394E09093E40616
:102EA0008093E306C093E50681E594E09093E706FE
:102EB0008093E606C093E80686E394E09093EA06E2
:102EC0008093E906C093EB0687E394E09093ED06C8
:102ED0008093EC06C093EE0688E394E09093F006AE
:102EE0008093EF06C093F10689E394E09093F30694
:102EF0008093F206C093F4068AE394E09093F6067A
:102F00008093F506C093F7068BE394E09093F9065F
:102F10008093F806C093FA068CE394E09093FC0645
:102F20008093FB06C093FD068DE394E09093FF062B
:102F30008093FE06C09300078FE394E0909302070E
:102F400080930107C093030782E494E09093050700
:102F500080930407C093060784E494E090930807E5
:102F600080930707C093090786E494E090930B07CA
:102F700080930A07C0930C0787E494E090930E07B0
:102F800080930D07C0930F0788E494E09093110796
:102F900080931007C093120789E494E0909314077C
:102FA00080931307C09315078AE494E09093170762
:102FB00080931607C09318078BE494E090931A0748
:102FC00080931907C0931B078CE494E090931D072E
:102FD00080931C07C0931E078DE494E09093200714
:102FE00080931F07C09321078EE494E090932307FA
:102FF00080932207C09324078FE494E090932607E0
:1030000080932507C093270780E994E090932907D0
:1030100080932807C0932A0781E994E090932C07B6
:1030200080932B07C0932D0784E094E090932F07A3
:1030300080932E07C093300784E594E09093320785
:1030400080933107C093330787E094E0909335076E
:1030500080933407C093360787E594E09093380750
:103060008093370788E0809391061092940610921F
:1030700095061092930610929206E5E8F6E084E237
:1030800097E02FEF258B33968E179F07D9F7109275
:103090008F0710928E0788EE93E0A0E0B0E0809357
:1030A000900790939107A0939207B093930788E6B7
:1030B00092E090938D0780938C071092A307109253
:1030C000A2071092A5071092A4071092A7071092CA
:1030D000A6071092A9071092A8076091AA076E7F11
:1030E0006D7F6093AA076695617081E0682783E031
:1030F0000E948C0761E083E00E943708E7EEF4E06D
:10310000E491E0939C07E1EAF4E0E491F0E0EE0F53
:10311000FF1FEC57FB4F8591949190939E078093EE
:103120009D0760E082E00E9437088091AA0781FD38
:1031300004C061E082E00E948C0782E080939807DF
:10314000E6EEF4E0E491E0939907E0EAF4E0E4913C
:10315000F0E0EE0FFF1FE659FB4F8591949190939D
:103160009B0780939A071092820710928107109212
:103170008307109284071092850710928607109299
:103180008707109288071092890710928A07109279
:103190008B0761E081E20E94370861E082E20E94D1
:1031A000370860E08EE10E94370860E08DE10E9400
:1031B000370820E030E04AE755E460915507709108
:1031C000560780915707909158070E948B1E8823BD
:1031D00009F451C080E090E0AAE7B5E48093550778
:1031E00090935607A0935707B093580780E090E05C
:1031F000AAE7B3E480937D0790937E07A0937F07AF
:10320000B09380078091710790917207A091730726
:10321000B0917407181619061A061B0664F560911A
:1032200051077091520780915307909154079B0169
:10323000AC010E94EF1F6B017C01609159077091F6
:103240005A0780915B0790915C079B01AC010E943B
:103250001F1E9B01AC01C701B6010E94901E0E9477
:10326000021F6093710770937207809373079093A6
:1032700074070E94CA0260E070E08AE794E40E944A
:10328000FD0D8DE397E00E94680880914D079091B5
:103290004E07A0914F07B0915007803F9944A2403C
:1032A000B10571F080EF99E4A2E0B0E080934D07A2
:1032B00090934E07A0934F07B09350070E94CA0205
:1032C0000E94DF0861E082E00E94370860E083E04E
:1032D0000E9437081092A7071092A6071092A50720
:1032E0001092A4071092A3071092A2078DE991E013
:1032F0009093A9078093A8078091980796EF980F5D
:10330000943048F02EEC280F243028F022EC280FBF
:10331000283008F061C02DEB30E03093A3072093F4
:10332000A2072BE931E03093A5072093A4072CE2F4
:1033300031E03093A7072093A607943050F02EEC8D
:10334000280F243030F022EC280FF0E0E0E02830A5
:1033500010F4E8E6F0E02081943028F032EC380FE9
:10336000383008F46EC031E0232B943048F09EECE6
:10337000980F943028F08E53F0E0E0E0883010F49D
:10338000E8E6F0E020832091980736EF320F3430E2
:1033900008F459C08EEC820F843008F454C082ECDB
:1033A000820F883008F452C090E080E09093A0072C
:1033B00080939F07343008F04CC02650330B81E0D7
:1033C00001C0880F2A95EAF78093A1078091A8078A
:1033D0009091A9070197F1F78091A6079091A7070F
:1033E000892B49F1E0913B07F0913C0787E0EC38ED
:1033F000F80709F1309739F0A389B4899C91858940
:10340000809589238C938091AA078E7F8093AA0749
:1034100010923A07109239078CE897E090933C0796
:1034200080933B07E0919F07F091A00780819091E6
:10343000A107892B8083CF91FF90EF90DF90CF90F1
:10344000089534E091CF8BE690E0B0CF8DE690E028
:10345000ADCF88E0223309F4B7CF84E0233309F4F9
:10346000B3CF82E0243309F4AFCF82EC820F8830EF
:1034700018F42E53330BA3CF81E0A6CFCF93DF9365
:10348000CDB7DEB760970FB6F894DEBF0FBECDBFE5
:10349000789484B5826084BD84B5816084BD85B52F
:1034A000826085BD85B5816085BD80916E0081603B
:1034B00080936E00109281008091810082608093E1
:1034C00081008091810081608093810080918000E3
:1034D0008160809380008091B10084608093B1000E
:1034E0008091B00081608093B000809191008260F3
:1034F00080939100809191008160809391008091F0
:1035000090008160809390008091A1008260809300
:10351000A1008091A10081608093A1008091A00012
:1035200081608093A00080912101826080932101BD
:10353000809121018160809321018091200181602F
:103540008093200180917A00846080937A0080913A
:103550007A00826080937A0080917A008160809303
:103560007A0080917A00806880937A001092C1007E
:1035700010928E0310928D031092900310928F037D
:103580000E94BA0783EE94E09093B8038093B70348
:1035900084EE94E09093BC038093BB0310928A0660
:1035A00080918F06823018F098E090938A0680937D
:1035B0008D062FEF30E782E0215030408040E1F768
:1035C00000C000006091900685E896E00E946E09B8
:1035D0009FEFE3EDF0E39150E040F040E1F700C0F1
:1035E000000060E385E896E00E94CF0E8FE496E449
:1035F0000197F1F700C0000060E385E896E00E94C3
:10360000CF0EEFE4F6E43197F1F700C0000060E37D
:1036100085E896E00E94CF0E87E592E00197F1F7EA
:1036200000C0000060E285E896E00E94CF0E609145
:103630008A06606240E085E896E00E94EE0E84E033
:1036400080938B0640E06CE085E896E00E94EE0EE9
:1036500085E896E00E941E1182E080938C0640E08F
:1036600066E085E896E00E94EE0E40E062E085E8C4
:1036700096E00E94EE0EEFE3FFE13197F1F700C014
:10368000000088E08093900660E085E896E00E9464
:103690006E0985E896E00E941E1110929306109222
:1036A000920684E297E025E8A22E26E0B22E2FEFC4
:1036B000F501258BF3E0AF0EB11C8A159B05C1F710
:1036C00088EE95E00E9474048BE495E00E947404F7
:1036D0008EEA94E00E94740481E194E00E947404F4
:1036E00080E1809381001092800080E293E09093CB
:1036F00087008093860081E18093810086E99CE0C9
:10370000909301028093000281E080936F009924DE
:10371000939488248A9402EB12E09E012F5F3F4F1E
:1037200079018BE0C82E8AE0D82E0E949B049C0170
:103730002D58310991E02331310508F090E0909344
:1037400041030E949B044F97879740F580913F0368
:103750009091400301969093400380933F036CE265
:1037600071E080E090E00E94550A85E896E00E94B2
:103770001E111092930610929206E5E8F6E0858AF3
:103780003396AE16BF06D9F780913F039091400360
:10379000049724F01092400310923F0380913F035E
:1037A000909140038130910509F4F5C034F4892BE0
:1037B00009F453C00E94C10BB8CF8230910509F4BF
:1037C0004AC10397B9F7109294061092950660E0EB
:1037D00080E00E94050F88EE92E00E943D0F10925B
:1037E00094069092950661E080E00E94050F80911A
:1037F00005028F93809104028F93809103028F932F
:10380000809102028F931F930F93FF92EF920E9479
:10381000B720C7010E943D0F0E949B040FB6F89489
:10382000DEBF0FBECDBF893E93400CF074C10E9435
:10383000B104882309F4BECF809102029091030263
:10384000A0910402B09105020097A105B10509F409
:1038500075C10197A109B10969C11092940610922E
:10386000950660E080E00E94050F8AE992E00E94E0
:103870003D0F109294069092950661E080E00E94C0
:10388000050F809111028F93809110028F93809188
:103890000F028F9380910E028F931F930F93FF92CD
:1038A000EF920E94B720C7010E943D0F0E949B0427
:1038B0000FB6F894DEBF0FBECDBF893E93406CF5C6
:1038C0000E94B104882309F475CF80910E02909173
:1038D0000F02A0911002B09111020097A105B1054D
:1038E00059F00197A109B10980930E0290930F023C
:1038F000A0931002B09311026EE072E090E080E0BD
:103900000E94291164E670E080E090E00E94550A70
:10391000D0923E03C0923D034DCF80910E02909114
:103920000F02A0911002B09111020196A11DB11DCC
:1039300080930E0290930F02A0931002B093110295
:10394000D0923E03C0923D036EE072E090E080E0D2
:103950000E94291170903D0384E190E00E94BF1DF8
:10396000871529F0672D84E190E00E94C71D7090B3
:103970003E0385E190E00E94BF1D871529F0672D69
:1039800085E190E00E94C71D64E670E080E090E071
:103990000E94550A0FCF109294061092950660E08F
:1039A00080E00E94050F85EB92E00E943D0F10928F
:1039B00094069092950661E080E00E94050F809148
:1039C0000D028F9380910C028F9380910B028F9345
:1039D00080910A028F931F930F93FF92EF920E94A0
:1039E000B720C7010E943D0F0E949B040FB6F894B8
:1039F000DEBF0FBECDBF893E9340ACF40E94B10440
:103A0000882309F4D7CE80910A0290910B02A091ED
:103A10000C02B0910D020097A105B105B9F0019714
:103A2000A109B1090BC080910A0290910B02A091EB
:103A30000C02B0910D020196A11DB11D80930A02E6
:103A400090930B02A0930C02B0930D026AE072E017
:103A500084E090E055CF109294061092950660E0B5
:103A600080E00E94050F8DEC92E00E943D0F1092C5
:103A700094069092950661E080E00E94050F809187
:103A800009028F93809108028F93809107028F9390
:103A9000809106028F931F930F93FF92EF920E94E3
:103AA000B720C7010E943D0F0E949B040FB6F894F7
:103AB000DEBF0FBECDBF893E9340ACF40E94B1047F
:103AC000882309F477CE8091060290910702A09195
:103AD0000802B09109020097A105B105B9F001975C
:103AE000A109B1090BC08091060290910702A09133
:103AF0000802B09109020196A11DB11D8093060232
:103B000090930702A0930802B093090266E072E066
:103B100088E090E0F5CE8091020290910302A0919E
:103B20000402B09105020196A11DB11D809302020D
:103B300090930302A0930402B093050262E072E046
:103B40008CE090E0DDCE88E692E090938D07809344
:103B50008C0780913B0790913C078C58974071F4FB
:103B6000E0919F07F091A00790818091A107809537
:103B70008923808310923C0710923B070895F9999E
:103B8000FECF92BD81BDF89A992780B50895262F62
:103B9000F999FECF1FBA92BD81BD20BD0FB6F89432
:103BA000FA9AF99A0FBE01960895052E97FB1EF416
:103BB00000940E94EC1D57FD07D00E94FC1D07FCDD
:103BC00003D04EF40C94EC1D509540953095219502
:103BD0003F4F4F4F5F4F0895909580957095619539
:103BE0007F4F8F4F9F4F0895EE0FFF1F881F8BBF92
:103BF0000790F691E02D1994A1E21A2EAA1BBB1B87
:103C0000FD010DC0AA1FBB1FEE1FFF1FA217B307A8
:103C1000E407F50720F0A21BB30BE40BF50B661FBE
:103C2000771F881F991F1A9469F760957095809582
:103C300090959B01AC01BD01CF0108955058BB2761
:103C4000AA270E94361E0C94B01F0E94A21F38F0B3
:103C50000E94A91F20F039F49F3F19F426F40C9418
:103C60009F1F0EF4E095E7FB0C94991FE92F0E942B
:103C7000C11F58F3BA17620773078407950720F02E
:103C800079F4A6F50C94E31F0EF4E0950B2EBA2FF1
:103C9000A02D0B01B90190010C01CA01A001112452
:103CA000FF27591B99F0593F50F4503E68F11A16FE
:103CB000F040A22F232F342F4427585FF3CF46958F
:103CC00037952795A795F0405395C9F77EF41F16B1
:103CD000BA0B620B730B840BBAF09150A1F0FF0F7B
:103CE000BB1F661F771F881FC2F70EC0BA0F621F67
:103CF000731F841F48F4879577956795B795F79557
:103D00009E3F08F0B0CF9395880F08F09927EE0FEB
:103D10009795879508950E94751F08F481E008958E
:103D20000E94A41E0C94B01F0E94A91F58F00E946C
:103D3000A21F40F029F45F3F29F00C94991F511104
:103D40000C94E41F0C949F1F0E94C11F68F39923D9
:103D5000B1F3552391F3951B550BBB27AA27621787
:103D60007307840738F09F5F5F4F220F331F441F94
:103D7000AA1FA9F335D00E2E3AF0E0E832D09150C8
:103D80005040E695001CCAF72BD0FE2F29D0660FB5
:103D9000771F881FBB1F261737074807AB07B0E8F8
:103DA00009F0BB0B802DBF01FF2793585F4F3AF0FE
:103DB0009E3F510578F00C94991F0C94E41F5F3FCF
:103DC000E4F3983ED4F3869577956795B795F79584
:103DD0009F5FC9F7880F911D9695879597F908956C
:103DE000E1E0660F771F881FBB1F62177307840708
:103DF000BA0720F0621B730B840BBA0BEE1F88F717
:103E0000E09508950E94091F6894B1110C94E41F75
:103E100008950E94C91F88F09F5798F0B92F9927DD
:103E2000B751B0F0E1F0660F771F881F991F1AF0A5
:103E3000BA95C9F714C0B13091F00E94E31FB1E008
:103E400008950C94E31F672F782F8827B85F39F007
:103E5000B93FCCF3869577956795B395D9F73EF43E
:103E600090958095709561957F4F8F4F9F4F0895E6
:103E7000E89409C097FB3EF4909580957095619504
:103E80007F4F8F4F9F4F9923A9F0F92F96E9BB27BA
:103E90009395F695879577956795B795F111F8CF36
:103EA000FAF4BB0F11F460FF1BC06F5F7F4F8F4FA1
:103EB0009F4F16C0882311F096E911C0772321F097
:103EC0009EE8872F762F05C0662371F096E8862F2F
:103ED00070E060E02AF09A95660F771F881FDAF786
:103EE000880F9695879597F90895990F0008550FB3
:103EF000AA0BE0E8FEEF16161706E807F907C0F070
:103F000012161306E407F50798F0621B730B840B77
:103F1000950B39F40A2661F0232B242B252B21F451
:103F200008950A2609F4A140A6958FEF811D811DF1
:103F3000089597F99F6780E870E060E008959FEF2B
:103F400080EC089500240A94161617061806090630
:103F5000089500240A9412161306140605060895FF
:103F6000092E0394000C11F4882352F0BB0F40F487
:103F7000BF2B11F460FF04C06F5F7F4F8F4F9F4FC7
:103F8000089557FD9058440F551F59F05F3F71F049
:103F90004795880F97FB991F61F09F3F79F08795B0
:103FA0000895121613061406551FF2CF4695F1DF39
:103FB00008C0161617061806991FF1CF86957105C9
:103FC000610508940895E894BB2766277727CB01FD
:103FD00097F908950E94751F08F48FEF08950E94C5
:103FE00002200C94B01F0E94A21F38F00E94A91F4B
:103FF00020F0952311F00C94991F0C949F1F11240D
:104000000C94E41F0E94C11F70F3959FC1F3950F9C
:1040100050E0551F629FF001729FBB27F00DB11D4C
:10402000639FAA27F00DB11DAA1F649F6627B00DDC
:10403000A11D661F829F2227B00DA11D621F739FC5
:10404000B00DA11D621F839FA00D611D221F749FD3
:104050003327A00D611D231F849F600D211D822F1A
:10406000762F6A2F11249F5750409AF0F1F0882341
:104070004AF0EE0FFF1FBB1F661F771F881F91506E
:104080005040A9F79E3F510580F00C94991F0C9465
:10409000E41F5F3FE4F3983ED4F3869577956795E8
:1040A000B795F795E7959F5FC1F7FE2B880F911D98
:1040B0009695879597F9089519F416F40C949F1F17
:1040C0000C94A2200E94C91FB8F39923C9F3B6F338
:1040D0009F57550B87FF0E94B0200024A0E640EABE
:1040E000900180585695979528F4805C660F771F4D
:1040F000881F20F026173707480730F4621B730B20
:10410000840B202931294A2BA69517940794202542
:1041100031254A2758F7660F771F881F20F026178A
:104120003707480730F4620B730B840B200D311DE9
:10413000411DA09581F7B901842F9158880F96955C
:10414000879508959F3F31F0915020F4879577959A
:104150006795B795880F911D9695879597F908955E
:1041600091505040660F771F881FD2F708950F9324
:104170001F93CF93DF93CDB7DEB72E970FB6F8948A
:10418000DEBF0FBECDBF0E891F8986E08C831A83E8
:1041900009838FEF9FE79E838D83AE01465E5F4F5D
:1041A000688D798DCE0101960E94E7202F81388598
:1041B000020F131FF80110822E960FB6F894DEBF7F
:1041C0000FBECDBFDF91CF911F910F9108952F9218
:1041D0003F924F925F926F927F928F929F92AF9297
:1041E000BF92CF92DF92EF92FF920F931F93CF93E4
:1041F000DF9300D000D000D01F921F92CDB7DEB762
:104200007C013B018A01FC0117821682838181FFB8
:10421000DDC1CE0101965C01F7019381F30193FDAD
:10422000859193FF81913F01882309F453C1853221
:1042300039F493FD859193FF81913F01853229F4F3
:10424000B70190E00E94FF22E7CF912C212C312C66
:10425000FFE1F31538F08B3211F190F4803209F15F
:10426000833229F137FC3CC020ED280F2A3050F56D
:1042700036FE20C08AE0989E200D1124922E06C0A2
:104280008D3291F0803371F7689430F8F30193FD2B
:10429000859193FF81913F018111DACF21C068940C
:1042A00031F8689432F8F2CF689433F8EFCF68941D
:1042B00034F8ECCFEAE02E9E200D1124222E6894D3
:1042C00035F8E4CF8E3229F436FC04C1689436F810
:1042D000DDCF8C3619F4689437F8D8CF8836B1F230
:1042E000982F9F7D95549330E0F08336A1F183376A
:1042F000C1F1833509F063C02801F2E04F0E511C73
:10430000F801C080D180692D70E036FC02C06FEFEB
:104310007FEFC6010E94E9224C01689437F88201C0
:104320000AC00C5F1F4FFFE3F98388248394912C0C
:104330006501E89437F833FE2DC0522C81149104A6
:1043400071F5552009F468CFB70180E290E00E9432
:10435000FF225A94F6CFF801808189830E5F1F4FA8
:10436000E4CF2801F2E04F0E511CF801C080D1804B
:10437000692D70E036FC02C06FEF7FEFC6010E942E
:10438000F4224C018201D5CFB70180E290E00E9477
:10439000FF222A942814190409F0B0F7CECFF601B1
:1043A00037FC859137FE81916F01B70190E00E9443
:1043B000FF2251105A94F1E08F1A9108BFCF843632
:1043C00019F0893609F077C0F80137FE6BC06081BB
:1043D0007181828193810C5F1F4FF32DFF763F2EF9
:1043E00097FF09C090958095709561957F4F8F4F8D
:1043F0009F4F689437F82AE030E0A5010E942F23F0
:10440000C82ECA188C2C432C36FE0CC0E89440F8F9
:10441000C91440F434FE05C032FC03C0F32DFE7E07
:104420004F2E892C44FEAAC0FE01EC0DF11D8081A7
:10443000803309F09CC0242D297E422E842D887063
:10444000582E43FCAAC040FEA4C09C2C821418F431
:104450002C0C922C981844FEA6C0B70180E390E083
:104460000E94FF2242FE09C088E790E041FE02C0A0
:1044700088E590E0B7010E94FF22C91408F49FC0AC
:10448000CA94D12C9FEFC91AD90ACA0CDB1CF601B9
:1044900082916F01B70190E00E94FF22AC14BD042D
:1044A000B1F74FCF60817181072E000C880B990BFB
:1044B0000E5F1F4F92CFD32CE894D4F82AE030E05F
:1044C0008537E1F1232D297FD22E8F36A9F1F0F423
:1044D000883551F1F701868197812B960FB6F894B4
:1044E000DEBF0FBECDBFDF91CF911F910F91FF9027
:1044F000EF90DF90CF90BF90AF909F908F907F9084
:104500006F905F904F903F902F900895803749F0C3
:10451000883701F7D4FE02C06894D2F820E130E079
:104520000DC06894D4F8F6CF34FE03C0822F8660A5
:10453000D82E20E132E002C028E030E0F801D7FEBA
:104540000FC060817181828193810C5F1F4FA50133
:104550000E942F23C82ECA183D2CE89437F852CF5A
:104560006081718190E080E00E5F1F4FF0CF42FCD0
:1045700002C0839463CF8394839460CF842D867824
:1045800009F45CCFF6CFB70180E290E00E94FF22F1
:1045900083948214C0F3512C5ECF522C581882148D
:1045A00008F459CFF8CF842D867809F466CF8BE2D2
:1045B00041FE80E247FC8DE2B70190E05CCFB7019D
:1045C00080E390E00E94FF229A9457CF8FEF9FEFF5
:1045D00084CFFC010590615070400110D8F78095A0
:1045E00090958E0F9F1F0895FC01615070400190BF
:1045F0000110D8F7809590958E0F9F1F08950F9307
:104600001F93CF93DF93182F092FEB018B8181FD2F
:1046100009C01FEF0FEF812F902FDF91CF911F91D6
:104620000F91089582FF14C02E813F818C819D815E
:10463000281739073CF4E881F981CF010196998365
:10464000888310838E819F8101969F838E83E3CF21
:10465000E885F985812F1995892BA1F3DACFFA0125
:10466000AA27283051F1203181F1E8946F936E7FB1
:104670006E5F7F4F8F4F9F4FAF4FB1E03ED0B4E0A2
:104680003CD0670F781F891F9A1FA11D680F791FE3
:104690008A1F911DA11D6A0F711D811D911DA11DF4
:1046A00020D009F468943F912AE0269F1124301904
:1046B000305D3193DEF6CF010895462F4770405D9F
:1046C0004193B3E00FD0C9F7F6CF462F4F70405D4E
:1046D0004A3318F0495D31FD4052419302D0A9F7A9
:1046E000EACFB4E0A6959795879577956795BA95A3
:1046F000C9F700976105710508959B01AC010A2E69
:1047000006945795479537952795BA95C9F7620F3F
:10471000731F841F951FA01D089512E0C6E9D2E003
:1047200000E006C0802FFE010E94F41D2196011DAD
:0E473000C739D10780E00807A9F7F894FFCF3A
:10473E00950C50460000050000007D0000000E01A3
:10474E0000000000400014005400000000003C0572
:10475E000F05920CE5040805F504E60400000000C0
:10476E00540B870ACD0AA10BFE0ADC0AF00A0000E0
:10477E0000009C086808F907B2069C066A064906FE
:10478E001506F4059E056B0500000000370F870A1D
:10479E00920CE60B00000000FF0B870A920CE5045A
:1047AE005B0C710CE70B4100420045004B004D00C5
:1047BE0048004F005000430054005800610065004F
:1047CE006F00700063007900780043D09B45D09F46
:1047DE002ED0974F484120D094D09ED09CD0902080
:1047EE00310025640043D09B45D09F2ED0974F4873
:1047FE004120D094D09ED09CD090203200D09ED01C
:10480E009AD09DD09E20D0A1D09AD090D09DD098F5
:10481E00D0A0D09ED0922E00434B4F502E20434B13
:0C482E004148D098D0A0D09E422E00003F
:00000001FF
